:020000040800F2
:10000000F0070020012100086D0400086F040008BB
:1000100073040008770400087B0400080000000057
:100020000000000000000000000000007F04000845
:100030008104000800000000830400088504000813
:100040001B2100081B2100081B21000813180008B1
:100050001B2100081B210008291B00088B1B00081E
:10006000E71B0008451C0008A31C00081B21000812
:100070001B2100081B2100081B2100081B21000870
:100080001B2100081B2100081B2100081B21000860
:100090001B2100081B2100081B210008011D00086E
:1000A0001B2100081B2100081B2100081B21000840
:1000B0001B210008C31400081B2100081B21000895
:1000C0001B2100081B2100081B2100081B21000820
:1000D0001B210008C31F00081B2100081B0E00087D
:1000E0001B2100081B2100081B2100081B21000800
:1000F0001B2100081B2100081B2100081B210008F0
:100100001B2100081B2100081B2100081B210008DF
:100110001B2100081B2100081B2100081B210008CF
:100120001B2100081B2100081B2100081B210008BF
:1001300000F002F800F03FF80AA090E8000C8244BA
:100140008344AAF10107DA4501D100F034F8AFF297
:10015000090EBAE80F0013F0010F18BFFB1A43F0A5
:1001600001031847DC410000FC410000103A24BFA5
:1001700078C878C1FAD8520724BF30C830C144BF0C
:1001800004680C607047000000230024002500264E
:10019000103A28BF78C1FBD8520728BF30C148BFEA
:1001A0000B607047642903F00787002070471FB574
:1001B0001FBD10B510BD04F087F81146FFF7F7FF1B
:1001C00000F008F804F0A5F803B4FFF7F2FF03BC51
:1001D00001F098FE0125002401F02AFE4FF4A060F2
:1001E00001F0AEFF4FF4E13001F09BFE00F080FE25
:1001F00001F0B4FB00F0EEFD052001F056FE2820D2
:1002000001F053FE40218E4802F017F9282001F03A
:100210004CFE40218A4802F00EF9282001F045FEEC
:100220004021874802F009F9282001F03EFE4021D4
:10023000834802F000F900F0D6FFFFE08148007823
:10024000092875D2DFE800F0CFF10521426CC67AAB
:10025000DE007D48007803280BDB00207A49087017
:1002600001F0CFFD794900220A5400207549087039
:10027000E3E001F0C6FD0646304600F0DAFA7248C7
:100280000078401C70490870D7E06F480078032858
:1002900008DB01F0B6FD6D4900220A5400206949CF
:1002A0000870CAE08021664802F0C7F800F07BFFC2
:1002B0000021012000F0B6FF65A000F07BFF4FF4A5
:1002C000967001F0F2FD00F06EFFB6E06348007832
:1002D000012824D15C48007805280BDB00205A490E
:1002E000087001F08EFD594900220A54002055493A
:1002F0000870A2E08021524802F09FF800F067FBEE
:1003000000F0D4FC01F07DFD504900220A544E4813
:100310000078401C4C4908700020504908708CE05F
:10032000494800780A2804DB00204649087084E028
:100330007BE08021424802F080F87EE03FE04848C0
:10034000807B312805D100F03CFA00203D4908703F
:100350003BE04348807B322808D1424801780020A6
:1003600000F0A0FA0020374908702EE03C48807B5E
:10037000332808D13B480178022000F093FA00208E
:100380003049087021E03648807B342808D1354850
:100390000178032000F086FA00202A49087014E052
:1003A0002F48807B352808D12E480178012000F0A5
:1003B00079FA00202349087007E0601CC4B20A2CB7
:1003C00003DA2748807B0028B9D100BF00201D49EF
:1003D000087032E080211A4802F02FF829460020E8
:1003E00000F060FA29E001F00CFD184900220A54DF
:1003F00000201A4908708021114802F01EF800F010
:10040000B1F91AE01A221849154803F011FE1A2111
:10041000154803F052FE01F04FFE0720094908700D
:100420008021074802F009F807E08021044802F023
:1004300004F800200349087000BF00BFFEE600007A
:10044000000C01401D0000203C0000204000002066
:10045000C7EBCBA2BFA8A3A1A3A100004800002026
:10046000AC0000205C00002092000020704700BF1C
:10047000FEE700BFFEE700BFFEE700BFFEE77047F4
:1004800070477047704700000CB500200190009045
:100490006C48006840F480306A49086000BF6948D1
:1004A000006800F4003000900198401C0190009812
:1004B00018B90198B0F5A06FF1D16248006800F456
:1004C000003010B10120009001E000200090009861
:1004D000012843D15C48006840F010005A49086088
:1004E0000846006820F0030008600846006840F0F5
:1004F0000200086053484068524948600846406816
:1005000048600846406840F480604860084640689B
:1005100020F47C1048600846406840F4E8104860C9
:100520000846006840F08070086000BF45480068D9
:1005300000F000700028F9D04248406820F0030025
:10054000404948600846406840F00200486000BFEB
:100550003C48406800F00C000828F9D10CBD10B5EB
:10056000FFF792FF10BD10B53648006840F001005B
:1005700034490860084640683449084031494860B9
:1005800008460068324908402E490860084600685D
:1005900020F4802008600846406820F4FE0048608F
:1005A0004FF41F008860FFF7DAFF4FF00060294921
:1005B000086010BD10B5002100200022214B5B68AF
:1005C00003F00C0121B1042906D0082928D107E045
:1005D000214B224C236027E01F4B204C236023E05B
:1005E000184B5B6803F47010164B5B6803F48032A1
:1005F000022303EB904022B9194B4343174C23606D
:100600000DE0104B5B6803F4003323B1144B4343FC
:10061000124C236003E0104B4343104C236003E073
:100620000D4B0E4C236000BF00BF064B5B68C3F34D
:1006300003130C4CE15C094B1B68CB40074C236057
:1006400010BD000000100240002002400000FFF832
:10065000FFFFF6FE08ED00E000127A000000002027
:1006600000093D000400002008B50121442002F0EB
:10067000F1F81C20ADF8000048208DF80300694611
:10068000354801F02BFE0120ADF8000028208DF840
:1006900003006946314801F021FE08BD10B504464B
:1006A00014B101202E4908702D480078002837D059
:1006B0001021294801F0A5FE78B10821264801F053
:1006C000A0FE50B10421244801F09BFE28B1012175
:1006D000224801F096FE012822D10A2001F0E5FB14
:1006E00000201F49087010211B4801F08AFE08B93C
:1006F000012010BD0821184801F083FE08B902202E
:10070000F7E70421144801F07CFE08B90320F0E764
:100710000121124801F075FE01281BD10420E8E7F1
:1007200010210D4801F06DFE012813D108210A485F
:1007300001F067FE01280DD10421074801F061FE98
:10074000012807D10121054801F05BFE10B9012005
:10075000034908700020CCE7001801400008014060
:100760001400002010B58021CC4801F064FE00F098
:100770001AFD0221012000F055FDC9A000F01AFD6C
:100780000221084600F04EFDC8A000F013FD4FF412
:10079000967001F08AFB00F006FD10BD10B58021B7
:1007A000BE4801F048FE00F0FEFC0021012000F0F0
:1007B00039FDC1A000F0FEFC4FF4967001F075FB0E
:1007C00010BD10B58021B54801F037FE00F0EBFCFC
:1007D0000021012000F026FDBB4800F0EBFC0121C8
:1007E000084600F01FFDB9A000F0E4FC0021022043
:1007F00000F018FDB9A000F0DDFC0221084600F071
:1008000011FDB84800F0D6FC0621022000F00AFDD8
:10081000B5A000F0CFFC4FF42F7001F046FB10BDE7
:100820000CB50146B1A30CCBCDE900231DF80100A6
:100830000CBD38B504462046FFF7F2FF009000F0EB
:10084000B2FC8021954801F0F8FD0021012000F064
:10085000E9FC684600F0AEFC0121084600F0E2FC2D
:10086000A4A000F0A7FC0021022000F0DBFCA4A063
:1008700000F0A0FC4FF42F7001F017FB38BD10B54D
:1008800000F091FC8021854801F0D7FD0021012076
:1008900000F0C8FC9CA000F08DFC4FF4FA7001F051
:1008A00004FB10BD13B504462CB1022C03D0032C5D
:1008B00001D0012C7ED134B1012C64D0022C22D085
:1008C000032C1FD13FE000F06EFC8021734801F043
:1008D000B4FD0021012000F0A5FC01A800F06AFC95
:1008E0000121084600F09EFC8AA000F063FC022172
:1008F000084600F097FC8BA000F05CFC4FF42F70D2
:1009000001F0D3FA61E000F04EFC8021634801F071
:1009100094FD0021012000F085FC01A800F04AFCB4
:100920000121084600F07EFC7AA000F043FC022181
:10093000084600F077FC7EA000F03CFC4FF42F70DE
:1009400001F0B3FA41E000F02EFC8021534801F0A1
:1009500074FD0021012000F065FC01A800F02AFCD4
:100960000121084600F05EFC6AA000F023FC012192
:10097000022000F057FC71A000F01CFC4FF42F7017
:1009800001F093FA21E000F00EFC8021434801F0D1
:1009900054FD0021012000F045FC01A800F00AFCF4
:1009A0000121084600F03EFC5AA000F003FC0221A1
:1009B000084600E00AE000F035FC64A000F0FAFB15
:1009C0004FF42F7001F071FA00BF00BF1CBD10B5CD
:1009D0008021324801F031FD00F0E5FB00210120CB
:1009E00000F020FC5CA000F0E5FB0021022000F0FC
:1009F00019FC5CA000F0DEFB4FF4FA7001F055FA30
:100A000010BD38B504462046FFF70AFF009000F0FD
:100A1000CAFB8021214801F010FD0021012000F0D7
:100A200001FC684600F0C6FB0121084600F0FAFB15
:100A30004FA000F0BFFB0021022000F0F3FB4FA00D
:100A400000F0B8FB0A2001F030FA00F0ACFB38BD32
:100A500038B504462046FFF7E3FE009000F0A3FB04
:100A600080210E4801F0E9FC0021012000F0DAFBB2
:100A7000684600F09FFB0121084600F0D3FB42A02E
:100A800000F098FB0021022000F0CCFB40A000F019
:100A900091FB4FF4FA7001F008FA38BD000C0140E8
:100AA000BBB6D3ADCAB9D3C300000000BDF0B5E3F7
:100AB000E6E4B3E400000000C7EBD1A1D4F1B3E455
:100AC000B5E7B6CBBFDA3A005C000020B6CBBFDAA0
:100AD000D2D1B4F2BFAAA3BA00000000D3E0B6EEB0
:100AE0000000000054000020D4AA0000313233344A
:100AF00035363738BAC5B6CBBFDABFC9D3C3000065
:100B0000C7EBCBA2BFA83A00B3E4B5E7D6D02E2EF0
:100B10002E000000B6CBBFDAB4F2BFAACAA7B0DC81
:100B200000000000D3E0B6EEB2BBD7E30000000047
:100B3000B4CBBFA8CEDED0A700000000B6CBBFDA92
:100B4000D2D1B1BBD5BCD3C300000000CDF8C2E701
:100B5000D2ECB3A3000000002020D5FDD4DAB6C14A
:100B6000BFA800002020C7EBC9D4BAF32E2E2E0058
:100B7000B6CBBFDABFAAC6F4D6D00000C7EBC9D443
:100B8000BAF32E2E2E000000B6CBBFDA3A000000DA
:100B9000D5FDD4DABCECB2E2B8C3B6CBBFDA000004
:100BA00030B502460023002000BF06E012F8015BCA
:100BB0002C18E0B200BF5C1CE3B28B42F6DB30BD08
:100BC0000146002904DB092902DC01F13002D0B220
:100BD0000A2904DB0F2902DC01F13702D0B2704789
:100BE0001CB5112448A103C9CDE9000101F009F9A0
:100BF0001DF800407E204649087048708870C87013
:100C000002200871084644714249C9780811FFF76B
:100C1000D7FF3F4988713F49C97801F00F00FFF7BE
:100C2000CFFF3B49C8713B4989780811FFF7C8FFDE
:100C3000374908723749897801F00F00FFF7C0FF84
:100C400033494872334949780811FFF7B9FF3049F1
:100C500088723049497801F00F00FFF7B1FF2C4945
:100C6000C8722C4909780811FFF7AAFF28490873B0
:100C70002849097801F00F00FFF7A2FF24494873C3
:100C80000E212348FFF78CFF214988730D20C8737C
:100C90000A2008741CBD10B50346002003E00C5C5C
:100CA0001C54441CE0B29042F9DB10BD10B51A4848
:100CB000007888B1002018490870042217491548A7
:100CC000FFF7E9FFFFF78CFF1121114801F0B1F99F
:100CD00011210F4803F0F1F910BD10B502460020B4
:100CE00004E012F8013B58404B1ED9B20029F8DC51
:100CF00010BD0246002003E000231354431CD8B269
:100D00008842F9DB704700003132333435363738EA
:100D10002B000020260000201E00002021000020C3
:100D200008B50121082001F095FD0121880401F09A
:100D30009EFD0121084601F08DFD4FF48060ADF865
:100D4000000018208DF8030003208DF8020069468A
:100D50005F4801F0C3FA4FF40060ADF800000420D2
:100D60008DF8030069465A4801F0B8FA08BD1FB56E
:100D70004FF4165000900020ADF80400ADF80600C6
:100D8000ADF80800ADF80C000C20ADF80A0069467B
:100D9000504801F006FE012240F225514D4801F075
:100DA00098FE01214B4801F088FE4021494801F09E
:100DB0006CFF1FBD08B527208DF8000000208DF8BE
:100DC000010001208DF802008DF80300684601F053
:100DD000BCF908BD10B5FFF7A3FFFFF7C8FFFFF789
:100DE000E9FF10BD10B5044621463B4801F0D2FE94
:100DF00000BF8021384801F03BFF0028F9D010BD2A
:100E000070B505460E46002404E0285DFFF7EAFFB2
:100E1000601CC4B2B442F8DB70BD70B5002540F26E
:100E200025512C4801F03AFF00284FD007212B48CC
:100E3000FFF75FFF002240F22551264801F049FEEE
:100E4000002418E000BF2021224801F011FF0028F3
:100E5000F9D020211F4801F00BFF012809D11D48BE
:100E600001F09CFE1D49085540F22551194801F03A
:100E70003FFF601CC4B2072CE4DB012240F2255185
:100E8000144801F026FE072C13D114480078552889
:100E90000ED112484078AA280AD104210F48801C9C
:100EA000FFF71BFF05460D488079A84202D070BDB0
:100EB000FDE7FCE704200A49087001200949087091
:100EC00000200949087001200849087000BFEEE7BA
:100ED000000C014000480040004400401F0000207A
:100EE0001D000020480000203C0000201E000020C3
:100EF00008B50121282001F0ADFCC020ADF80000AC
:100F000010208DF8030003208DF802006946F74891
:100F100001F0E4F94FF43040ADF8000010208DF8F6
:100F2000030003208DF802006946F04801F0D6F96D
:100F300008BD70B505460120ED490860ED49C1F8CE
:100F4000BC01002409E00020E949091D08600120D6
:100F5000E849C1F8B401601CC4B2052CF3DB0020E1
:100F6000E349091D0860E349C1F8BC01002409E018
:100F70000120DF49091D08600020DE49C1F8B401E5
:100F8000601CC4B2032CF3DB002417E005F08000E2
:100F900020B10120D6490C31086003E00020D4497B
:100FA0000C3108600120D249091D08600020D14998
:100FB000C1F8B4016806050E601CC4B2042CE5DB60
:100FC0000020CB490C310860962000F04AFF002435
:100FD00009E00120C649091D08600020C549C1F883
:100FE000B401601CC4B2042CF3DB002417E005F04C
:100FF000800020B10120BE490C31086003E00020D0
:10100000BB490C3108600120B949091D0860002066
:10101000B849C1F8B4016806050E601CC4B2042CBE
:10102000E5DB0020B2490C310860002409E0012012
:10103000AF49091D08600020AE49C1F8B401601C29
:10104000C4B2042CF3DB0020A9490860642000F03E
:1010500008FF70BD70B505460120A5490860A54987
:10106000C1F8BC01002409E00020A149091D086065
:101070000120A049C1F8B401601CC4B2052CF3DB07
:1010800000209B49091D08609A49C1F8BC01012054
:101090009749091D086000200860012094490C311F
:1010A00008609349091D08600020086090490C31D0
:1010B000086001208E49091D086000208D49C1F893
:1010C000B401002417E005F0800020B10120884918
:1010D0000C31086003E0002085490C3108600120D4
:1010E0008349091D086000208249C1F8B4016806DF
:1010F000050E601CC4B2042CE5DB00207C490C31D9
:101100000860002409E000207949091D08600120D9
:101110007849C1F8B401601CC4B2042CF3DB002090
:101120007349091D0860002417E005F0800020B114
:1011300001206F490C31086003E000206C490C313C
:10114000086001206A49091D086000206949C1F84A
:10115000B4016806050E601CC4B2042CE5DB002057
:1011600063490C310860002409E001206049091D31
:10117000086000205F49C1F8B401601CC4B2042CAF
:10118000F3DB00205A490860642000F06AFE70BD5D
:1011900010B53020FFF7CDFE0120FFF7CAFE052075
:1011A00000F083FE10BD10B5642000F07EFEFFF756
:1011B000EFFF10BD10B5044603E014F8010BFFF774
:1011C00049FF20780028F8D110BD10B5044606E08C
:1011D00014F8010BFFF73EFF1E2000F066FE20789A
:1011E0000028F5D110BD10B5282000F05EFE30209B
:1011F000FFF79FFE282000F058FE3420FFF799FEED
:10120000282000F052FE0C20FFF793FE282000F06B
:101210004CFEFFF7BDFF282000F047FE0620FFF739
:1012200088FE10BD70B505460C46012D02D0022D7A
:101230000CD105E004F18001C8B2FFF77AFE05E0A9
:1012400004F19001C8B2FFF774FE00BF00BF70BD8B
:101250002DE9F04206460F46002429E0204604EB23
:10126000D0714910A4EB4101012901D1B14600E040
:10127000B946002518E03620FFF75BFE04F1800137
:10128000C8B2FFF756FE05F180014144C8B2FFF72E
:1012900050FE4846FFF7DEFE4846FFF7DBFE3020F3
:1012A000FFF747FE681CC5B2082DE4DB601CC4B222
:1012B000202CD3DBBDE8F08270B53620FFF739FE75
:1012C00000240FE08020FFF734FE04F18001C8B253
:1012D000FFF72FFEFF20FFF7BDFEFF20FFF7BAFE4E
:1012E000601CC4B2082CEDDB01252DE0000C014090
:1012F000B081214200802142002421E005F18001DB
:10130000C8B2FFF716FE04F18001C8B2FFF711FE64
:101310002CB98020FFF79EFE0020FFF79BFE072CD4
:1013200006D10020FFF796FE0120FFF793FE05E0AF
:101330000020FFF78FFE0020FFF78CFE601CC4B278
:10134000082CDBDB681CC5B2102DD5DB002527E09F
:10135000002421E005F19001C8B2FFF7EAFD04F195
:101360009001C8B2FFF7E5FD2CB98020FFF772FEAF
:101370000020FFF76FFE072C06D10020FFF76AFE62
:101380000120FFF767FE05E00020FFF763FE002065
:10139000FFF760FE601CC4B2082CDBDB681CC5B222
:1013A0000F2DD5DB00240FE09F20FFF7C2FD04F1D5
:1013B0009001C8B2FFF7BDFDFF20FFF74BFEFF20F5
:1013C000FFF748FE601CC4B2082CEDDB3020FFF7AD
:1013D000B0FD70BD70B5044600261DE0002517E085
:1013E0003620FFF7A6FD06F18001C8B2FFF7A1FD88
:1013F00005F180013944C8B2FFF79BFD14F8010BD9
:10140000FFF728FE14F8010BFFF724FE681CC5B295
:10141000082DE5DB701CC6B2202EDFDB70BD70B579
:1014200000210220FFF7FEFE002508E0A120FFF7C3
:1014300011FE05F14001C8B2FFF70CFE6D1C202D16
:10144000F4D300210320FFF7EDFE002408E0A220E2
:10145000FFF700FE04F14501C8B2FFF7FBFD641C75
:10146000102CF4D370BD00007FB505460C46012159
:10147000022001F0FCF9ADF80850ADF8044000205E
:10148000ADF80A00ADF8060001A9134801F0ACFD63
:1014900001221146104802F01EF91D208DF80000AF
:1014A00000208DF8010003208DF8020001208DF846
:1014B0000300684600F049FE0121074802F0F0F8F9
:1014C0007FBD10B50121044802F0B3FB18B1012122
:1014D000014802F0BFFB10BD0004004008B5032026
:1014E0008DF8000000208DF801008DF80200012029
:1014F0008DF80300684600F028FE08BDF0B50346ED
:101500000C461546642093FBF0F0C6B2642093FBB2
:10151000F0F700FB1730C1B2132E02DD01F16400B9
:10152000C1B20846CF1701EB977701EBA707BAB214
:10153000072092FBF0F700FB172082B25719601EBC
:10154000DFF8D8C31CF80000384482B2CF1701EB93
:101550009777BF10A1EB87071FB9032C01DA501E44
:1015600082B2072092FBF0F700FB1720C0B2F0BD5B
:101570000146CA1701EB92729210A1EB820292B956
:10158000642091FBF0F200FB121050B94FF4C870C8
:1015900091FBF0F200FB121008B901207047002007
:1015A000FCE70120FAE70020F8E770B500260024E8
:1015B000002502F073FB0646D948B6FBF0F4D94883
:1015C0000088A0423CD0D7490C8040F2B27510E0B0
:1015D0002846FFF7CDFF40B1B4F5B77F02D3A4F59D
:1015E000B77404E0681C85B206E0A4F26D14681CB0
:1015F00085B2B4F5B67FEBD800BFCB488580002517
:1016000016E0C9498888FFF7B3FF30B1012D04D136
:101610001D2C01D31D3C09E00CE0C448405DA042F4
:1016200003D8C248405D241A00E003E0681C85B27C
:101630001C2CE6D200BF681CBB498871601CC871B5
:10164000B748B6FBF0F100FB11644FF46160B4FBE6
:10165000F0F0B54908704FF46160B4FBF0F100FBA5
:1016600011403C21B0FBF1F0AF4948704FF461608C
:10167000B4FBF0F100FB11403C21B0FBF1F201FBA7
:101680001200A94988700B46DA7999799888FFF792
:1016900035FFA5490872002070BD2DE9F05F0646B0
:1016A0000F4690469946DDE90AAB002440F2B2703D
:1016B000864203DB40F63300864202DD0120BDE8AE
:1016C000F09F40F2B2750AE02846FFF751FF10B1D3
:1016D0009748044401E097480444681C85B2B54229
:1016E000F2DB781EC7B2002510E09048405D40F262
:1016F000A321484304EBC0143046FFF739FF18B16B
:10170000012D01D186480444681C85B2BD42ECDB42
:10171000A8F1010040F2A321484304EBC014C9EB37
:101720004910C0EB092004EB0014CAEB0A1004EBCB
:1017300080045C4401214FF0C05001F098F8012072
:1017400002F09DFB204602F0B2FA02F0E3FA00201C
:10175000B5E71CB5002401214FF0C05001F087F817
:10176000012002F08CFB042002F051FB45F25001F5
:10177000884240D002F016FB012000F0D8FF04E0C0
:10178000601CC4B20A2000F090FB412000F037FF3B
:1017900008B9FA2CF4DBFA2C01DB01201CBD4FF454
:1017A000807000F0E0FF012000F0E3FF02F0B2FAE9
:1017B00002F0B9FA0121084602F050FA02F0AAFA42
:1017C00002F059FA47F6FF7002F07EFA02F0A2FA30
:1017D00037202A2111230E22CDE90010012140F2E9
:1017E000DF70FFF75AFF02F04FFA45F25001042074
:1017F00002F001FB07E002F096FA0121084602F030
:101800002DFA02F087FAFFF769FEFFF7CEFE0020FF
:10181000C4E70EB5012002F0ABFA20B146480078CB
:10182000401C45490870022002F0A2FAA0B1022033
:1018300002F0AEFAFFF7B9FE3B4880783A494978A2
:10184000394A1278CDE9002102903748C37982796C
:1018500081883AA002F070FB052002F099FA02F0AC
:1018600059FA0EBD2DE9F05F06460F46904699469F
:10187000DDE90AAB002440F2B270864203DB40F699
:101880003300864202DD0120BDE8F09F40F2B275D0
:101890000AE02846FFF76CFE10B12548044401E039
:1018A00024480444681C85B2B542F2DB781EC7B2F6
:1018B000002510E01D48405D40F2A321484304EBA1
:1018C000C0143046FFF754FE18B1012D01D1144861
:1018D0000444681C85B2BD42ECDBA8F1010040F273
:1018E000A321484304EBC014C9EB4910C0EB092005
:1018F00004EB0014CAEB0A1004EB80045C440121E1
:101900004FF0C05000F0B3FF012002F0B8FA2046BB
:1019100002F0E8F902F0FEF90020B5E728430008DC
:10192000805101003E000020880000203443000860
:101930000085E2018033E1013C000020416C6172CE
:101940006D2054696D653A25642D25642D2564202C
:1019500025643A25643A25640A0000000EB5FEF7B6
:1019600083FE0121084600F075FF0021084600F0C3
:10197000CBFD0120019000208DF808000C208DF88F
:10198000090001208DF80A0001A801F0D9F9012110
:10199000002000F0B9FD0220019000208DF8080021
:1019A0000C208DF8090001208DF80A0001A801F033
:1019B000C7F90221002000F0A7FD042001900020BB
:1019C0008DF808000C208DF8090001208DF80A0020
:1019D00001A801F0B5F90321002000F095FD0820D1
:1019E000019000208DF808000C208DF809000120DE
:1019F0008DF80A0001A801F0A3F90421002000F0ED
:101A000083FD1020019000208DF808000C208DF837
:101A1000090001208DF80A0001A801F091F90521C3
:101A2000002000F071FD2020019000208DF80800BA
:101A30000C208DF8090001208DF80A0001A801F0A2
:101A40007FF90621002000F05FFD4020019000207A
:101A50008DF808000C208DF8090001208DF80A008F
:101A600001A801F06DF90721002000F04DFD802054
:101A7000019000208DF808000C208DF8090001204D
:101A80008DF80A0001A801F05BF906208DF800002E
:101A900001208DF801008DF802008DF803006846E2
:101AA00000F053FB07208DF8000001208DF80100A5
:101AB0008DF802008DF80300684600F046FB082010
:101AC0008DF8000001208DF801008DF802008DF8DE
:101AD0000300684600F039FB09208DF80000012062
:101AE0008DF801008DF802008DF80300684600F0C3
:101AF0002CFB0A208DF8000001208DF801008DF8E4
:101B000002008DF80300684600F01FFB17208DF8D7
:101B1000000001208DF801008DF802008DF803000F
:101B2000684600F012FB0EBD10B50A2000F0BDF9AA
:101B3000012001F06BF930B3B9480078012802D1D7
:101B400001F075F910BDB7480078012806D10020D2
:101B5000FEF757FF012001F06AF9F3E7B14800787A
:101B600088B90020FEF774FF0120AE4908700220FA
:101B7000AD4908700020AD490870642000F095F967
:101B8000012001F054F900BFDCE710B50A2000F095
:101B90008CF9022001F03AF918B3A1480078012825
:101BA00003D1022001F043F910BD9E48407801287E
:101BB00005D1FEF726FF022001F039F9F4E7994834
:101BC000407870B90120FEF743FF01209549487025
:101BD000022095490870002094490870022001F005
:101BE00026F900BFE0E710B50A2000F05EF90420F6
:101BF00001F00CF920B38A480078012803D10420B1
:101C000001F015F910BD87488078012806D102201F
:101C1000FEF7F7FE042001F00AF9F3E78148807827
:101C200070B90220FEF714FF01207E49887002205F
:101C30007D49087000207D490870042001F0F7F804
:101C400000BFDFE710B50A2000F02FF9082001F0EF
:101C5000DDF820B372480078012803D1082001F094
:101C6000E6F810BD6F48C078012806D10320FEF7C2
:101C7000C8FE082001F0DBF8F3E76A48C07870B9C5
:101C80000320FEF7E5FE01206649C8700220664980
:101C90000870002065490870082001F0C8F800BFEE
:101CA000DFE710B50A2000F000F9102001F0AEF8CF
:101CB00020B35B480078012803D1102001F0B7F869
:101CC00010BD58480079012806D10420FEF799FE7E
:101CD000102001F0ACF8F3E75248007970B9042005
:101CE000FEF7B6FE01204F49087102204E490870E8
:101CF00000204E490870102001F099F800BFDFE77E
:101D000010B50A2000F0D1F8202001F07FF820B3B0
:101D100043480078012803D1202001F088F810BD45
:101D200040484079012806D10520FEF76AFE2020B0
:101D300001F07DF8F3E73B48407970B90520FEF7E4
:101D400087FE01203749487102203749087000207A
:101D500036490870202001F06AF8402001F056F85A
:101D600020B32F480078012803D1402001F05FF80C
:101D7000D5E72C488079012806D10620FEF741FEE0
:101D8000402001F054F8CAE72648807970B906204F
:101D9000FEF75EFE01202349887102202249087067
:101DA000002022490870402001F041F8802001F015
:101DB0002DF820B31A480078012803D1802001F0C3
:101DC00036F8ACE71748C079012806D10720FEF79E
:101DD00018FE802001F02BF8A1E71248C07970B9F5
:101DE0000720FEF735FE01200E49C87102200E497A
:101DF000087000200D490870802001F018F800BF1D
:101E00008DE7002100BF07E00648405C012801D1B2
:101E100008467047481CC1B20829F5DB0020F8E7E6
:101E200048000020400000201D0000203C00002051
:101E300010B56FF0040000F0D2F92E4800682E496A
:101E4000B0FBF1F02D4908700846007800EB400126
:101E5000C1EBC0104FF6FF7101EAC00028490880AD
:101E600010BD0146254A12784A434FF0E0235A61DB
:101E700000229A611A46126942F001021A6100BFFB
:101E80004FF0E022106900F001021AB100F4803234
:101E9000002AF5D04FF0E022126922F001024FF043
:101EA000E0231A6100229A6170470146144A1288A1
:101EB0004A434FF0E0235A6100229A611A461269A0
:101EC00042F001021A6100BF4FF0E022106900F0F9
:101ED00001021AB100F48032002AF5D04FF0E0225E
:101EE000126922F001024FF0E0231A6100229A6188
:101EF000704700000000002000127A004A00002015
:101F00004C000020014600BF704700BF754A128890
:101F100002F04002002AF9D0C2B2724B1B1D1A8097
:101F2000704710B586B00446012144F2040000F069
:101F300091FC4FF40070ADF8140003208DF81600EA
:101F400018208DF8170005A9674800F0C7F94FF46D
:101F50008060ADF8140004208DF8170005A96248D0
:101F600000F0BCF925208DF8000003208DF8010059
:101F70008DF8020001208DF80300684600F0E5F8B6
:101F800001940020ADF80800ADF80A00ADF80C008F
:101F9000ADF810000C20ADF80E0001A9514800F07A
:101FA00000FD012240F225514E4800F092FD012132
:101FB0004C4800F082FD40214A4800F066FE06B021
:101FC00010BD10B540F22551464800F067FE78B3C9
:101FD0001A214648FEF78DFE002240F22551414865
:101FE00000F077FD002418E000BF20213D4800F0FC
:101FF0003FFE0028F9D020213A4800F039FE0128A0
:1020000009D1384800F0CAFD3849085540F2255139
:10201000344800F06DFE601CC4B21A2CE4DB0820CA
:1020200033490870012240F225512E4800F051FD3D
:1020300010BD70B505460E4600240CE000BF4021DF
:10204000284800F015FE0028F9D0295D254800F049
:10205000A1FD601CC4B2B442F0DB00BF40212148A6
:1020600000F006FE0028F9D070BD01460020A1F165
:102070002E020C2A1DD2DFE802F01A1C06080A0CF8
:102080000E1012141618302014E0312012E0322005
:1020900010E033200EE034200CE035200AE036203A
:1020A00008E0372006E0382004E0392002E02E2046
:1020B00000E000BF00BF704710B500240D48407914
:1020C0000D49087000BF09E004F10F01094A505C96
:1020D000FFF7CBFF09490855601CC4B2082CF3DB9D
:1020E00010BD0000003801400008014092000020AF
:1020F0001D000020AC0000205C00002054000020E7
:102100000948804709480047FEE7FEE7FEE7FEE78B
:10211000FEE7FEE7FEE7FEE7FEE7FEE704480549C7
:10212000054A064B704700006705000831010008AA
:10213000F0010020F0070020F0030020F003002051
:1021400031490143314A1160704770B500210023C5
:102150000F22C47804B32D4C246804F4E064C4F561
:10216000E064210AC1F10403CA40447804FA03F18F
:102170008478144021430901254C0678A155047840
:1021800004F01F050124AC4005786D11AD0005F188
:10219000E025C5F8004109E0047804F01F0501249A
:1021A000AC401C4D0678761145F8264070BD1A4AA1
:1021B0000A400243154B1B1F1A60704739B1134A7E
:1021C000121D12680243114B1B1D1A6006E00F4AD4
:1021D000121D126882430D4B1B1D1A6070470428A4
:1021E00008D14FF0E021096941F004014FF0E022ED
:1021F000116107E04FF0E021096921F004014FF07F
:10220000E0221161704700000000FA050CED00E0CB
:1022100000E400E080E100E080FFFF1F10B504460D
:10222000CC48844208D10121042000F02DFB00217C
:10223000042000F029FB46E0C748844208D1012170
:10224000082000F021FB0021082000F01DFB3AE0EF
:10225000C248844208D10121102000F015FB002162
:10226000102000F011FB2EE0BD48844208D101216E
:10227000202000F009FB0021202000F005FB22E0D7
:10228000B848844208D10121402000F0FDFA002125
:10229000402000F0F9FA16E0B348844208D1012149
:1022A000802000F0F1FA0021802000F0EDFA0AE031
:1022B000AE48844207D10121801500F0E5FA0021E3
:1022C000A01500F0E1FA10BD10B50121084600F09C
:1022D000DBFA0021012000F0D7FA10BD2DE9F04112
:1022E000024600250026002000230024002791F844
:1022F00003C00CF00F0591F803C00CF0100CBCF1FA
:10230000000F03D091F802C04CEA050591F800C017
:10231000BCF1000F31D0146800202BE04FF0010C0D
:102320000CFA00F3B1F800C00CEA03069E4220D17B
:1023300083004FF00F0C0CFA03F7BC4305FA03FCC3
:102340004CEA040491F803C0BCF1280F06D14FF009
:10235000010C0CFA00FCC2F814C00AE091F803C0AA
:10236000BCF1480F05D14FF0010C0CFA00FCC2F88B
:1023700010C0401C0828D1D31460B1F800C0BCF1D3
:10238000FF0F34DD546800202EE000F1080C4FF000
:10239000010808FA0CF3B1F800C00CEA03069E42EB
:1023A00021D183004FF00F0C0CFA03F7BC4305FA60
:1023B00003FC4CEA040491F803C0BCF1280F05D1DA
:1023C00000F1080C08FA0CF8C2F8148091F803C068
:1023D000BCF1480F07D100F1080C4FF0010808FAD2
:1023E0000CF8C2F81080401C0828CED35460BDE819
:1023F000F0814FF6FF710180022181700421C170CC
:1024000070470246002093680B400BB1012000E0AA
:10241000002070470146886880B27047024600205D
:10242000D3680B400BB1012000E00020704701464B
:10243000C86880B2704701617047416170470AB156
:10244000016100E041617047C16070474FF4803224
:102450000A438261816182618269826970470246B2
:102460000020434B18684FF68073184040EA021072
:1024700008433F4B186070473E49C8617047F0B54C
:102480000A46002300240021002500F00046B6F192
:10249000004F02D1364EF16901E0354E7168C0F34C
:1024A000034583B200F44016B6F5401F08D121F071
:1024B00070612F4E766826F070662D4F7E6012E0B8
:1024C00000F48016B6F5801F06D1032606FA05F43F
:1024D000A14341F0706106E0460D360103FA06F6AD
:1024E000B14341F0706122B1460D360103FA06F6A0
:1024F000314300F00046B6F1004F02D11C4EF161AD
:1025000001E01B4E7160F0BD30B500228B071C0F3F
:102510000F2303FA04F2164B08338C1053F82430BF
:102520009343134C08348D1044F8253023468C1007
:1025300053F824308C07240F00FA04F423430C4C86
:1025400008348D1044F8253030BD0A49DC3108606C
:102550007047000000080140000C014000100140DD
:102560000014014000180140001C014000200140FF
:102570000000014000002042DF48006840F00100F8
:10258000DD49086008464068DC490840DA4948608F
:1025900008460068DA490840D749086008460068DC
:1025A00020F4802008600846406820F4FE0048605F
:1025B0004FF41F0088607047CF49096821F48031CB
:1025C000CD4A11601146096821F480211160B0F5EF
:1025D000803F03D0B0F5802F0ED106E0C6490968D0
:1025E00041F48031C44A116007E0C349096841F4ED
:1025F000A021C14A116000E000BF00BF704710B5C4
:1026000001460022002300204A11012A02D1BA4CBF
:10261000236806E0022A02D1B74C236A01E0B64CD7
:10262000636A01F01F02012494401C400CB1012098
:1026300000E0002010BD38B50020009000240025E7
:1026400000BF3120FFF7DBFF05460098401C0090DB
:102650000098B0F5A06F01D0002DF2D03120FFF727
:10266000CEFF08B1012400E00024204638BD014619
:102670000020A14A106820F0F80040EAC100106074
:102680007047A04908607047024600209A4B58687E
:1026900020F47C1042EA01031843974B58607047BE
:1026A00098490866704701460020934A506820F018
:1026B00003000843506070478F48406800F00C00EA
:1026C0007047014600208C4A506820F0F000084313
:1026D0005060704701460020874A506820F4E0604F
:1026E00008435060704701460020834A506820F438
:1026F000605040EAC1005060704729B17E4A527A6A
:1027000002437D4B5A7204E07B4A527A82437A4BF1
:102710005A7270477B49D8310860704701460020E3
:10272000754A506820F440400843506070470021CB
:10273000714A20321170704A82F82010012802D0AC
:1027400004280AD104E001216B4A2032117005E00F
:102750000521694A2032117000E000BF00BF7047B8
:102760006949086070476449096A0143624A116215
:102770007047654944390860704730B50021002230
:10278000002400235C4D6D6805F00C0121B1042983
:1027900005D0082923D105E05C4D056022E05B4DA2
:1027A00005601FE0544D6D6805F47012524D6D6860
:1027B00005F48034022505EB92421CB9544D554373
:1027C00005600BE04C4D6D6805F400351DB1504DB2
:1027D0005543056002E04D4D5543056002E04B4D09
:1027E000056000BF00BF444D6D6805F0F0010909A8
:1027F000484D6B5C0568DD4045603F4D6D6805F4F4
:10280000E061090A434D6B5C4568DD4085603A4DE7
:102810006D6805F46051C90A3E4D6B5C4568DD404A
:10282000C560354D6D6805F44041890B3A4D6B5CD0
:10283000C568B5FBF3F5056130BD29B12E4A526973
:1028400002432D4B5A6104E02B4A526982432A4BC2
:102850005A61704729B1284A92690243264B9A610E
:1028600004E0254A92698243234B9A61704729B15B
:10287000214AD2690243204BDA6104E01E4AD26940
:1028800082431D4BDA61704729B11B4AD26802436B
:10289000194BDA6004E0184AD2688243164BDA60BA
:1028A000704729B1144A12690243134B1A6104E0BC
:1028B000114A12698243104B1A617047124940391C
:1028C000086070470F49C86470470B49C87170476A
:1028D0000948406A40F080700749486270470146E5
:1028E0000020054A92680A400AB1012000E0002059
:1028F0007047014988727047001002400000FFF8DD
:10290000FFFFF6FE000042428004424200127A00BD
:1029100000093D00720000208200002010B504462E
:10292000FB48844209D101218803FFF7ADFF002154
:102930004FF48040FFF7A8FF32E0F648844209D107
:1029400001214804FFF7ADFF00214FF40030FFF7ED
:10295000A8FF25E0F048844209D101218804FFF74F
:10296000A0FF00214FF48020FFF79BFF18E0EB4809
:10297000844209D10121C804FFF793FF00214FF4DD
:102980000020FFF78EFF0BE0E548844208D10121CB
:102990000805FFF786FF00214FF48010FFF781FF45
:1029A00010BD2DE9F04786B005460E460024A2462C
:1029B00000BFA1460027B08900B100BF2F462C8A76
:1029C0004CF6FF700440F08804432C82AC894EF62C
:1029D000F3100440B08831890843718908430443E7
:1029E000AC81AC8A4FF6FF400440B0890443AC820E
:1029F00001A8FFF7C2FEC648874202D1DDF810A049
:102A000001E0DDF80CA0A88900F4004040B10AEB19
:102A1000CA0000EB0A1031684900B0FBF1F807E08A
:102A20000AEBCA0000EB0A1031688900B0FBF1F82C
:102A30006420B8FBF0F004012009642101FB108937
:102A4000A88900F4004040B1322000EBC900B0FB7F
:102A5000F1F000F00700044308E0322000EB091019
:102A60006421B0FBF1F000F00F0004432C8106B0AC
:102A7000BDE8F0874FF41651016000218180C180CC
:102A800001810C21418100218181704710B50246EE
:102A90000020108A4FF2FF0318400B884C88234314
:102AA0008C882343CC8823431843108210BD002117
:102AB000018041808180C180704721B1828942F4C8
:102AC0000052828104E082894DF6FF731A408281B0
:102AD0007047F0B50346002400260025002040F68C
:102AE0006A17B94200D100BF1846C1F3421401F081
:102AF0001F06012707FA06F5012C01D10C3004E06E
:102B0000022C01D1103000E014301AB107682F43B5
:102B1000076002E00768AF430760F0BD1AB1838A1F
:102B20000B43838202E0838A8B4383827047028A4D
:102B30004FF6F0731A400282028A0A4302827047FB
:102B400082894FF2FF731A40828182890A4382810F
:102B5000704721B1828942F00202828104E08289B9
:102B60004FF6FD731A4082817047028A4FF6DF7379
:102B70001A400282028A0A430282704721B1028A05
:102B800042F48042028204E0028A4BF6FF731A404C
:102B900002827047C1F3080282807047014688882C
:102BA000C0F308007047818941F0010181817047BD
:102BB000028BD2B20283028B42EA01220283704767
:102BC000028B02F47F420283028B0A430283704726
:102BD00021B1828A42F02002828204E0828A4FF68A
:102BE000DF731A408282704721B1828A42F010025C
:102BF000828204E0828A4FF6EF731A408282704725
:102C000021B1828A42F00802828204E0828A4FF671
:102C1000F7731A408282704721B1828942F40042E0
:102C2000828103E08289C2F30E028281704721B162
:102C3000828A42F40062828204E0828A4FF2FF7349
:102C40001A4082827047828A4FF6FB731A40828252
:102C5000828A0A438282704721B1828A42F002024C
:102C6000828204E0828A4FF6FD731A4082827047A6
:102C700002460020B1F5007F00D100BF13880B4051
:102C80000BB1012000E00020704701F40072B2F5A2
:102C9000007F00D100BFCA430280704770B5024672
:102CA000002400230025002040F66A16B14200D11E
:102CB00000BFC1F3421501F01F03012606FA03F31A
:102CC000012D02D19689334006E0022D02D1168AE9
:102CD000334001E0968A33400C12012606FA04F4D0
:102CE0001688344013B10CB1012000E0002070BD03
:102CF00010B50022002340F66A14A14200D100BFA3
:102D00000A1201249440A3B2DC43048010BD0000E9
:102D1000003801400044004000480040004C0040A2
:102D200000500040002044490860091D0860091D4A
:102D30000860091D086041483F4914310860704728
:102D400000213D498279002A3AD00A461268036878
:102D50009A430B461A600A1D126803689A430B1DBA
:102D60001A60027911440A6803681A430A60324AF9
:102D70000832126803689A432F4B08331A601A1DF1
:102D8000126803689A432C4B0C331A604279102A5C
:102D90000ED11A1F126803681A43274B08331A60B2
:102DA0001A1D126803681A43234B0C331A600DE096
:102DB0002149427911440A6803681A430A6005E010
:102DC000027911440A6803689A430A607047002137
:102DD000016001710C214171002181717047164918
:102DE000103109680143144A1032116070470146DE
:102DF0000020114A143212680A400AB1012000E092
:102E0000002070470C4914310860704701460020CB
:102E10000022094B1B6803EA0102074B14331B68AD
:102E20000B4013B10AB1012000E0002070470249B5
:102E3000143108607047000000040140FFFF0F00DC
:102E400010B50446FE48844208D10121C014FFF7A2
:102E50001BFD0021E014FFF717FDC4E0B4F1804F23
:102E600008D101210846FFF71CFD00210120FFF7D2
:102E700018FDB8E0F348844208D101210220FFF791
:102E800010FD00210220FFF70CFDACE0EE4884426B
:102E900008D101210420FFF704FD00210420FFF7E1
:102EA00000FDA0E0E948844208D101210820FFF795
:102EB000F8FC00210820FFF7F4FC94E0E448844289
:102EC00008D101211020FFF7ECFC00211020FFF7B2
:102ED000E8FC88E0DF48844208D101212020FFF788
:102EE000E0FC00212020FFF7DCFC7CE0DA48844293
:102EF00008D101214014FFF7C7FC00216014FFF73F
:102F0000C3FC70E0D548844209D10121C804FFF711
:102F1000BBFC00214FF40020FFF7B6FC63E0D04873
:102F2000844209D101210805FFF7AEFC00214FF4CE
:102F30008010FFF7A9FC56E0CA48844209D101215C
:102F40004805FFF7A1FC00214FF40010FFF79CFC9F
:102F500049E0C548844208D101214020FFF7A1FC87
:102F600000214020FFF79DFC3DE0C048844208D18D
:102F700001218020FFF795FC00218020FFF791FCC4
:102F800031E0BB48844208D101218015FFF789FC5C
:102F90000021A015FFF785FC25E0B648844209D141
:102FA00001210804FFF770FC00214FF48030FFF787
:102FB0006BFC18E0B048844209D101214804FFF7B6
:102FC00063FC00214FF40030FFF75EFC0BE0AB48E0
:102FD000844208D101218804FFF756FC00214FF4F8
:102FE0008020FFF751FC10BD00220288944B9842CC
:102FF0000ED0994B98420BD0B0F1804F08D0914B36
:10300000984205D0904B984202D0904B984204D100
:103010004FF68F731A404B881A438D4B984207D056
:103020008C4B984204D04FF6FF431A40CB881A438A
:1030300002808B8883850B880385814B98420BD057
:10304000854B984208D08B4B984205D08A4B9842CA
:1030500002D08A4B984201D10B7A038601238382E6
:10306000704770B5002400220023058C4FF6FE76D1
:1030700035400584028C8388048B4FF68F752C4075
:10308000B51E2C400D882C43751E2A400D892A43FD
:103090004D882A436A4DA8420BD06F4DA84208D0F4
:1030A000744DA84205D0744DA84202D0734DA84279
:1030B00013D14FF6F7752A404D892A434FF6FB7519
:1030C0002A408D882A434FF6FF652B404FF6FF5567
:1030D0002B408D892B43CD892B4383800483CD885E
:1030E0008586028470BD70B5002400220023058C03
:1030F0004FF6EF7635400584028C8388048B48F6C2
:10310000FF752C404FF6FF452C400D884FF6FF769B
:1031100006EA05252C434FF6DF752A400D8906EA9D
:1031200005152A434D8806EA05152A43444DA84251
:1031300002D0494DA8421DD14FF67F752A404D89D6
:103140004FF6FF7606EA05152A434FF6BF752A406B
:103150008D8806EA05152A434FF6FF352B404FF2BE
:10316000FF752B408D8906EA85052B43CD8906EA3C
:1031700085052B4383800483CD880587028470BD39
:1031800070B5002400220023058C4FF6FF66354001
:103190000584028C8388848B4FF68F752C404FF604
:1031A000FC752C400D882C434FF6FF552A400D89A5
:1031B0004FF6FF7606EA05252A434D8806EA0525DF
:1031C0002A431F4DA84202D0234DA8421DD14FF2E1
:1031D000FF752A404D894FF6FF7606EA05252A43FA
:1031E0004FF6FF352A408D8806EA05252A434EF61C
:1031F000FF752B404DF6FF752B408D8906EA0515AE
:103200002B43CD8906EA05152B4383808483CD8823
:103210008587028470BD70B5002200230024058CD0
:103220004EF6FF7635400584038C8488828B48F601
:10323000FF752A404FF6FF452A400D8820E0000028
:10324000002C01400004004000080040000C004039
:10325000001000400014004000340140004C0140C8
:10326000005001400054014000180040001C004084
:10327000002000400040014000440140004801405F
:103280004FF6FF7606EA05252A434DF6FF752B40DB
:103290000D8906EA05352B434D8806EA05352B4393
:1032A000FA4DA84202D0FA4DA84208D14BF6FF755C
:1032B0002C408D894FF6FF7606EA85152C438480D5
:1032C0008283CD88A0F84050038470BD828B4FF27A
:1032D000FF331A408283828B4FF6FF7303EA012388
:1032E0001A4382837047F0B50C4615460022002130
:1032F0000026078C4EF6FF7C07EA0C070784828BBA
:10330000018C4FF6FF7707EA043640F6FF473A4054
:103310004FF6FF7707EA05273A434FF6FF7707EAAC
:1033200003373A43D94FB8420ED0D94FB8420BD0E9
:10333000B0F1804F08D0D74FB84205D0D64FB84231
:1033400002D0D64FB84206D14DF6FF77394046F449
:103350008057394305E047F6FF57394044F480571A
:10336000394382830184F0BD828B4FF6F3731A4098
:103370008283828B0A4382837047F0B50C461546E0
:10338000002200210026078C4FF6FF6C07EA0C078D
:103390000784828B018C4FF6FF7707EA04264FF6ED
:1033A0000C773A404FF6FF7707EA03172F433A436B
:1033B000B64FB8420ED0B64FB8420BD0B0F1804FE6
:1033C00008D0B44FB84205D0B34FB84202D0B34F83
:1033D000B84206D14FF6FF57394046F4807739435B
:1033E00005E04FF2FF57394044F480773943828338
:1033F0000184F0BD028B4FF2FF331A400283028B2F
:103400004FF6FF7303EA01231A4302837047F0B5B6
:103410000C461546002200210026078C4FF6EF7C53
:1034200007EA0C070784028B018C4FF6FF7707EA47
:10343000041640F6FF473A404FF6FF7707EA033796
:103440003A434FF6FF7707EA05273A438F4FB842D2
:103450000ED08F4FB8420BD0B0F1804F08D08D4FB7
:10346000B84205D08C4FB84202D08C4FB84206D13A
:103470004FF6DF77394046F01007394305E04FF645
:103480005F77394044F01007394302830184F0BD6F
:10349000028B4FF6F3731A400283028B0A430283B6
:1034A0007047F0B50C46154600220021068C4FF6F9
:1034B000FE773E400684028B018C4FF60C7632403C
:1034C0007E1C06EA03162E433243704EB0420ED0E5
:1034D0006F4EB0420BD0B0F1804F08D06D4EB0426D
:1034E00005D06D4EB04202D06C4EB04206D14FF6C0
:1034F000FD76314044F00106314305E04FF6F576A4
:10350000314044F00106314302830184F0BD70B5BF
:1035100005460C465D4885420ED05D4885420BD07D
:10352000B5F1804F08D05B48854205D05A488542A6
:1035300002D05A48854200D100E000BF208850B92F
:103540002389A28861882846FFF7ABFFE1882846D7
:10355000FFF79EFF25E0208804280AD12389A2884E
:1035600061882846FFF753FFE1882846FFF742FFAE
:1035700017E0208808280AD12389A2886188284674
:10358000FFF7FBFEE1882846FFF7EEFE09E02389FE
:10359000A28861882846FFF7A6FEE1882846FFF743
:1035A00095FE70BD2DE9F04105460C460026012729
:1035B000608808B9022600E00026A088012801D111
:1035C000022700E001272088A0B92389A28861880A
:1035D0002846FFF766FFE1882846FFF759FF238951
:1035E0003A4631462846FFF712FFE1882846FFF7A2
:1035F00001FF13E02389A28861882846FFF707FFAF
:10360000E1882846FFF7F6FE23893A4631462846E8
:10361000FFF747FFE1882846FFF73AFFBDE8F08152
:103620000A884B881A438B881A43CB881A430B8924
:103630001A434B891A438B891A43A0F844207047D8
:103640004FF6FF71818000210180C18041800172AD
:1036500070470021018041808180C18001814181CA
:103660008181C181704700210180418001218180D9
:103670000021C1800181704700210180418081804B
:10368000C18001814181818170470000002C01408F
:10369000003401400004004000080040000C0040DD
:1036A00021B1028842F00102028004E002884FF654
:1036B000FE731A400280704731B1B0F8442042F4E2
:1036C0000042A0F8442005E0B0F84420C2F30E0206
:1036D000A0F8442070471AB183890B43838102E02C
:1036E00083898B43838170478182704741EA02035B
:1036F000A0F8483070471AB183890B43838102E0F8
:1037000083898B438381704701894FF6F87211409A
:10371000018170470A46002101894FF68F731940D5
:1037200011430181704730B504460D4629462046B5
:10373000FFF7F0FF208940F00700208130BD2DE920
:10374000F04104460D4616461F46602D06D13B4605
:10375000012231462046FFF75AFE05E03B46012292
:1037600031462046FFF79DFE29462046FFF7D2FF4F
:10377000208940F007002081BDE8F08130B50C467B
:1037800000210189C9B24FF6FF7505EA03251543EB
:1037900025432943018130BD2DE9F04105460E4600
:1037A00017469846002443463A4631462846FFF7D6
:1037B000E5FF2C894FF6F870044044F007044FF6FB
:1037C0008F70044044F070042C81BDE8F081F0B5A6
:1037D00004460D4616461F463B46324629462046BD
:1037E000FFF7CCFF208940F480402081F0BD0185A7
:1037F000828270470A46002101884FF68F73194074
:10380000114301807047F0B50C4615461E46002155
:10381000002200230189028B038C4FF6F877394090
:1038200021434FF6FC473A4040F201173A434FF626
:10383000DD773B404FF6FF7707EA06172F433B4300
:10384000018102830384F0BD0A460021018B4FF6FB
:103850008F7319401143018370470A460021018B81
:1038600048F6FF7319404FF6FF7303EA022319432A
:10387000018370470A460021818B4FF68F731940F0
:103880001143818370470A460021818B48F6FF73FC
:1038900019404FF6FF7303EA0223194381837047EF
:1038A00021B1028842F08002028004E002884FF6D3
:1038B0007F731A400280704721B1828842F004026F
:1038C000828004E082884FF6FB731A408280704742
:1038D00021B1828842F00802828004E082884FF69B
:1038E000F7731A408280704721B1828842F001024A
:1038F000828004E082884FF6FE731A40828070470F
:103900000A460021018B4FF6F773194011430183DA
:1039100070470A460021018B4FF2FF7319404FF6A2
:10392000FF7303EA02231943018370470A4600210B
:10393000818B4FF6F77319401143818370470A4614
:103940000021818B4FF2FF7319404FF6FF7303EA9A
:1039500002231943818370470A460021018B4FF6E9
:10396000FB7319401143018370470A460021018B04
:103970004FF6FF3319404FF6FF7303EA0223194352
:10398000018370470A460021818B4FF6FB73194073
:103990001143818370470A460021818B4FF6FF3324
:1039A00019404FF6FF7303EA0223194381837047DE
:1039B0000A460021018B4FF67F73194011430183A2
:1039C00070470A460021018BC1F30E014FF6FF73C9
:1039D00003EA02231943018370470A460021818BC1
:1039E0004FF67F7319401143818370470A460021C7
:1039F000818BC1F30E014FF6FF7303EA02231943D3
:103A0000818370470A460021018C4FF6FD731940EF
:103A10001143018470470A460021018C4FF6F77369
:103A200019401143018470470A460021018C4FF66A
:103A3000DF7319404FF6FF7303EA02131943018441
:103A400070470A460021018C4FF67F7319404FF6EC
:103A5000FF7303EA02131943018470470A460021E9
:103A6000018C4FF6FF5319404FF6FF7303EA022310
:103A70001943018470470A460021018C4FF2FF73FD
:103A800019404FF6FF7303EA02231943018470477C
:103A90000A460021018C4DF6FF7319404FF6FF7363
:103AA00003EA023319430184704730B5002301242F
:103AB0008C40A3B2048C9C430484048C02FA01F56C
:103AC000ADB22C43048430BD30B5002304248C40B7
:103AD000A3B2048C9C430484048C02FA01F5ADB2B9
:103AE0002C43048430BD70B50346002000241846E2
:103AF000183001258D40ACB21D8CA5431D8409B141
:103B0000082909D100EB6100056825F07005056002
:103B10000568154305600EE00D1FC5F34E052844EA
:103B2000056825F4E045056005684FF6FF7606EA6E
:103B300002263543056070BD21B1028842F00202C1
:103B4000028004E002884FF6FD731A40028070473D
:103B500021B1028842F00402028004E002884FF69C
:103B6000FB731A400280704721B1828842F08002C4
:103B7000828004E082884FF67F731A40828070470B
:103B800002884FF6F7731A40028002880A430280C7
:103B9000704782884FF68F731A40828082880A436A
:103BA0008280704702894FF6F8731A4002810289B9
:103BB0000A430281704702894FF67F731A400281DF
:103BC00002890A430281704781847047818570476A
:103BD000818670470187704781877047A0F8401041
:103BE000704702884FF6FF431A40028002880A435A
:103BF000028070470146888E70470146088F7047E3
:103C00000146888F70470146B1F840007047014671
:103C1000888C70470146088D704702460020138A41
:103C20000B400BB1012000E000207047CA43028224
:103C3000704730B50246002000230024158A05EAAB
:103C40000103958905EA010413B10CB1012000E0DC
:103C5000002030BDCA4302827047000029B1504A9B
:103C6000128802434E4B1A8004E04D4A1288824368
:103C70004B4B1A8070474A48001D008840F01000E6
:103C80004749091D088070474548001D00884FF6C8
:103C9000EF7108404249091D0880704700214048E3
:103CA0001C300188001F008841EA0040704700B5C1
:103CB0000246FFF7E0FF100C394918310880091D52
:103CC0000A80FFF7E1FF00BD00B50246FFF7D3FF12
:103CD000C2F30340324908310880091D0A80FFF70A
:103CE000D3FF00BD00B50246FFF7C5FF100C2C49FD
:103CF00020310880091D0A80FFF7C6FF00BD0020A3
:103D00002749103109880907080B2549143109880A
:103D10000843704700BF2248001D008800F02000C3
:103D20000028F8D070471E48001D00884FF6F77134
:103D300008401B49091D088000BF1948001D008864
:103D400000F008000028F8D0704701460020144A0F
:103D5000121D12880A400AB1012000E000207047BD
:103D60000F49091D098881430D4A121D11807047B2
:103D7000014600200A4A121D12880A40D0B2084AA1
:103D800012880A4012B108B1012000E000207047FB
:103D90000349091D09888143014A121D118070479A
:103DA0000028004010B50120FEF788FD0020FEF736
:103DB00085FD10BD2A49086070472949091F086020
:103DC0007047274984310860704701460020254A22
:103DD00010884FF67F4210400843224A10807047F7
:103DE000014600201F4A10884FF680721040084399
:103DF0001C4A1080704708B500220092194A2C3ADC
:103E00000092009A02440092009A116008BD08B521
:103E100001460020009013482C3800900098084478
:103E200000900098008808BD0D489C300068C0B222
:103E300070470C480830008840F0010009490831FB
:103E4000088070470648A0300068C0B27047054837
:103E50000830008840F002000249083108807047AD
:103E600004860D422C6C004010B501210807FEF7B6
:103E700018FD00214FF08050FEF713FD10BD2A49B8
:103E80000862704728490861704701460020274AA8
:103E9000106820F0E0000843106070472249A0310C
:103EA0000860704710B502460020204B186820F0CB
:103EB0000300104318601E4B1B6843F004031C4CA6
:103EC0002360012901D130BF00E020BF184B1B68DF
:103ED00023F00403164C236010BD1448006840F022
:103EE0000400124908600846006840F002000860BB
:103EF0000F48006840F004000D49086000BF00BF93
:103F000030BF704701460020084A52680A400AB193
:103F1000012000E0002070470449096841EA80015F
:103F2000024A11607047000000000E42007000401D
:103F300010ED00E0704700000FB4044910B503AA6B
:103F4000029800F039F910BC5DF814FB5000002015
:103F50002DE9F0410E460446002020622046E1682B
:103F6000884730B3252805D0D4E901219047206A3D
:103F7000401CF2E7E168204600278847050018D07A
:103F8000A5F14100192802D820354FF400673246C8
:103F9000294620462760FCF705F940B1012804D0E6
:103FA000F61D26F007060836D8E7361DD6E7284660
:103FB000DAE7206ABDE8F0812DE9F04106460024E9
:103FC00010687529314616A510D0AFF3008000287F
:103FD00002DA404213A507E031688A0701D512A52D
:103FE00002E0490704D511A5012401E0AFF30080E8
:103FF00000210A2206F1240709E0B0FBF2FCB0FB25
:10400000F2F302FB1C00303078541846491C00289B
:10401000F3D123462A463046BDE8F04100F073B89C
:10402000000000002D0000002B0000002000000018
:10403000032A40F2308010F0030C00F0158011F8D4
:10404000013BBCF1020F624498BF11F801CB00F8AC
:10405000013B38BF11F8013BA2F1040298BF00F800
:1040600001CB38BF00F8013B11F0030300F0B6802C
:10407000083AC0F0088051F8043B083A51F804CBE4
:10408000A0E80810F5E7121D5CBF51F8043B40F8AA
:10409000043BAFF30080D20724BF11F8013B11F8B5
:1040A00001CB48BF11F8012B24BF00F8013B00F8F9
:1040B00001CB48BF00F8012B70474FF000020429E4
:1040C000C0F0128010F0030C00F0BC80CCF1040CA6
:1040D000BCF1020F18BF00F8012BA8BF20F8022B7B
:1040E000A1EB0C0100F0AEB85FEAC17C24BF00F880
:1040F000012B00F8012B48BF00F8012B70477047D7
:104100007047704770472DE9F0470D469946924633
:10411000044600F124080168880604D5E06921F00E
:104120001001216000E00120A84201DD471B00E0F2
:104130000027A1697A1902EB0900081AA06120780A
:10414000C00602D42046AFF30080002608E0D4E980
:1041500001211AF806009047206A401C761C206254
:104160004E45F4DB2078C0060AD52046AFF3008028
:1041700006E0D4E9012130209047206A401C2062EB
:10418000381EA7F10107F4DC07E0D4E9012118F893
:1041900005009047206A401C2062281EA5F10105F9
:1041A000F3DC2046AFF300802078000602D5022021
:1041B000BDE8F0870120FBE7074B70B50D467B4457
:1041C00000F06BF80446284600F07AF810B14FF082
:1041D000FF3070BD204670BD49DDFFFF10B5203AAD
:1041E000C0F00B80B1E81850203AA0E81850B1E8B0
:1041F0001850A0E81850BFF4F5AF5FEA027C24BF66
:10420000B1E81850A0E8185044BF18C918C0BDE85C
:1042100010405FEA827C24BF51F8043B40F8043B25
:1042200008BF7047D20728BF31F8023B48BF11F8DA
:10423000012B28BF20F8023B48BF00F8012B704734
:104240004FF0000200B5134694469646203922BF2F
:10425000A0E80C50A0E80C50B1F12001BFF4F7AF7A
:10426000090728BFA0E80C5048BF0CC05DF804EB5C
:10427000890028BF40F8042B08BF704748BF20F8CA
:10428000022B11F0804F18BF00F8012B704700007F
:1042900001694A1C02610878704700B58FB0CDE90A
:1042A00001310021059105497944CDE903101146FA
:1042B0006846FFF74DFE0FB000BD0000E5FFFFFFB1
:1042C000007B00F080007047754600F029F8AE468C
:1042D00005006946534620F00700854618B020B512
:1042E000FDF71CFFBDE820404FF000064FF000072F
:1042F0004FF000084FF0000B21F00701AC46ACE88E
:10430000C009ACE8C009ACE8C009ACE8C0098D46FA
:1043100070470446AFF300802046FBF755FF0000CE
:1043200000487047900100200003030601040602C4
:10433000050003051F1C1F1E1F1E1F1F1E1F1E1F03
:104340006043000800000020880000006C010008A5
:10435000E843000888000020680700008801000882
:1043600000A24A0400000000000000000102030453
:104370000607080901313233342E353600000000BB
:1043800000000000000000000000007E7E7E7E0035
:10439000000000000000000000000000000000001D
:1043A000000000000000000000000000000000000D
:1043B00000000000000000000000000000000000FD
:1043C00000000000000000000000000000000000ED
:1043D00000000000000001020304010203040607BC
:0843E0000809020406080000B0
:0400000508000131BD
:00000001FF
